:020000040000FA
:100000000A128A11E42F00308A000408840A820749
:10001000003449346E3470347534743420345034C0
:1000200061347334733477346F347234643400342D
:1000300049346E3463346F347234723465346334EB
:100040007434003443346F3472347234653463343E
:0C00500074340034203400342A340034AE
:1007C400013400340234003403340034043400347B
:1007D40000300A128A110A240A128A1101300A12FC
:1007E4008A110A240A128A1108007E088A007F08E6
:1007F40082000A128A11F7230A128A118000840ADD
:1008040004087D0603190034FF0A0319FE0AFB2BB2
:10081400F30083120313081173080A128A112424A3
:100824000A128A118312031388151A30F200F83061
:10083400F100F10B1B2CF20B1B2C00008312031391
:1008440088110800F000701C282C292C2D2C8312F0
:1008540003130816302C831203130812F01C332CD4
:10086400342C362C8816372C8812701D3A2C3B2CCD
:100874003D2C08173E2C0813F01D412C422C442C0F
:100884008817452C88130800FB00F901FA015D2C38
:1008940079087B0784000A128A1103200A128A113C
:1008A4000A128A1112250A128A110130F907031853
:1008B400FA0A0030FA0779087B0784000A128A11C1
:1008C40003200A128A11003A031D692C6A2C4A2C4F
:1008D4000800F6007603031D702C712C942C740808
:1008E4007F3EFF007F08F9007908F500043003100B
:1008F400F50CFF3E031D792C7508FF007F08F700F7
:1009040079080F39FF007F08F80077080A128A1166
:100914000A240A128A1178080A128A110A240A126D
:100924008A11BC2C02307606031D992C9A2CBC2CFF
:100934007408BF3EFF007F08F9007908F500043011
:100944000310F50CFF3E031DA22C7508FF007F0861
:10095400F70079080F39FF007F08F80077080A12BA
:100964008A110A240A128A1178080A128A110A249E
:100974000A128A11080000300A128A1124240A1269
:100984008A1103300A128A110A240A128A112130A8
:10099400F5007630F400F40BCD2CF50BCD2C0000D3
:1009A40003300A128A110A240A128A114830F50007
:1009B4006C30F400F40BDC2CF50BDC2C0000033061
:1009C4000A128A110A240A128A1102300A128A119E
:1009D4000A240A128A1102300A128A110A240A12FB
:1009E4008A1108300A128A110A240A128A11003064
:1009F4000A128A110A240A128A110C300A128A1164
:100A04000A240A128A1100300A128A110A240A12CC
:100A14008A1106300A128A110A240A128A1108005D
:100A2400F40074080F39FF007F08F2007408F039ED
:100A3400FF007F08F3008312031308157308F10005
:100A440004300310F10CFF3E031D232D71080A121C
:100A54008A1124240A128A1183120313881533304D
:100A6400F5008230F6000000FF30F5070318F60A9F
:100A7400FF30F6077608803AFF0080307F02031DBE
:100A8400452D01307502031C482D492D352D831247
:100A94000313881172080A128A1124240A128A1173
:100AA4008312031388153330F7008230F8000000F6
:100AB400FF30F7070318F80AFF30F8077808803A80
:100AC400FF0080307F02031D692D01307702031C73
:100AD4006C2D6D2D592D8312031388110800831278
:100AE40003130716871307138712071C7A2D7B2D10
:100AF4008B2D7008F2007207203E840001308313AE
:100B04008000840A003080000718892D8A2D862DE4
:100B14006A2E871C8E2D8F2D9F2D7008F200720770
:100B2400203E8400023083138000840A0030800059
:100B340087189D2D9E2D9A2D6A2E071DA22DA32D5B
:100B4400B32D7008F2007207203E84000330831333
:100B54008000840A003080000719B12DB22DAE2D1B
:100B64006A2E87160712071CB82DB92DC92D7008D7
:100B7400F2007207203E8400043083138000840A4C
:100B8400003080000718C72DC82DC42D6A2E871C7D
:100B9400CC2DCD2DDD2D7008F2007207203E84008F
:100BA400053083138000840A003080008718DB2D11
:100BB400DC2DD82D6A2E071DE02DE12DF12D7008B6
:100BC400F2007207203E8400063083138000840AFA
:100BD400003080000719EF2DF02DEC2D6A2E071739
:100BE4008712071CF62DF72D072E7008F2007207E6
:100BF400203E8400073083138000840A0030800084
:100C04000718052E062E022E6A2E871C0A2E0B2E7E
:100C14001B2E7008F2007207203E840008308313F4
:100C24008000840A003080008718192E1A2E162E90
:100C34006A2E071D1E2E1F2E2F2E7008F20072071B
:100C4400203E8400093083138000840A0030800031
:100C540007192D2E2E2E2A2E6A2E87170713071CEE
:100C6400342E352E452E7008F2007207203E840083
:100C74000B3083138000840A003080000718432E51
:100C8400442E402E6A2E871C482E492E572E70085B
:100C9400F2007207203E840083138001840A8001DD
:100CA4008718552E562E522E6A2E071D5A2E5B2E4D
:100CB400712D7008F2007207203E84000C308313FB
:100CC4008000840A003080000719692E6A2E662E7F
:100CD400080083160313880186010F3087008312EE
:100CE400031386010A128A11BD240A128A110A12F8
:100CF4008A11EA230A128A11F401F40A01300A1251
:100D04008A116B240A128A1101300A128A114624AC
:100D14000A128A1183120313B701B8018312031351
:100D24003808803AFF0080307F02031D9B2E043078
:100D3400370203189E2E9F2E582F0130831203135F
:100D4400B5000030B600831203133808F1003708E9
:100D5400F0000A128A1171250A128A1183120313F0
:100D64003708B2003207203E840083130008B30022
:100D7400840A0008B400B41BC02EC12EF32E370819
:100D8400B2003207203E84000008B300840A000841
:100D9400B4003408803AFF0080307F02031DD42E53
:100DA4000A3033020318D72ED82EF32E83120313DE
:100DB4003508FF007F08F40002300A128A116B2400
:100DC4000A128A1124300A128A1146240A128A113C
:100DD400013083120313B7070318B80A0030B807A9
:100DE400442F831203133808803AFF0080307F02B7
:100DF400031DFE2E01303702031C012F022F3B2F4F
:100E0400831203133708B2003207203E8400831391
:100E14000008B300840A0008B4000B30330634041D
:100E2400031D152F162F3B2FFF30B5070318B60AE5
:100E3400FF30B6073508FF007F08F40002300A12BD
:100E44008A116B240A128A1122300A128A1146244A
:100E54000A128A11FF3083120313B5070318B60A66
:100E6400FF30B607FF30B7070318B80AFF30B807DA
:100E7400442F0000FF3083120313B5070318B60A8A
:100E8400FF30B6070130B5070318B60A0030B607BD
:100E94003608803AFF0080307F02031D532F05304F
:100EA4003502031C562F572FA52E902E0430F00028
:100EB4000030F1000A128A1171250A128A110C30CD
:100EC4008312031328062904031D692F6A2FDF2FB9
:100ED4002B082106031D702F2A082006031D732FDB
:100EE400742FB82F2D082306031D7A2F2C082206F1
:100EF400031D7D2F7E2FB82F2F082506031D842F59
:100F04002E082406031D872F882FB82F31082706A3
:100F1400031D8E2F30082606031D912F922FB82F04
:100F24000A128A11EA230A128A11F401F40A01301E
:100F34000A128A116B240A128A111A300A128A11AF
:100F440046240A128A118030831203138600FE306D
:100F540083120313B400A730B3006530B200B20BA0
:100F6400B12FB30BB12FB40BB12FE12F0A128A1199
:100F7400EA230A128A11F401F40A01300A128A11CE
:100F84006B240A128A1110300A128A1146240A129A
:100F94008A1102308312031386001C308312031358
:100FA400B400E730B300C630B200B20BD72FB30B96
:100FB400D72FB40BD72F0000E12F0000582F0A12AF
:100FC4008A11002883133230FD000330FE00E23022
:100FD400FF002A3084000A128A11FB230A128A11A4
:100FE400A001A101A201A301A401A501A601A701D9
:0C0FF400A801A90183010A128A116B2ECA
:02400E00723FFF
:00000001FF
